{
  "_format": "hh-sol-artifact-1",
  "contractName": "CollectibleExtension",
  "sourceName": "contracts/CollectibleExtension.sol",
  "abi": [
    {
      "inputs": [
        {
          "internalType": "address",
          "name": "creatorWalletAddress",
          "type": "address"
        },
        {
          "internalType": "address",
          "name": "providerWalletAddress",
          "type": "address"
        },
        {
          "internalType": "address",
          "name": "developerWalletAddress",
          "type": "address"
        },
        {
          "internalType": "address",
          "name": "creator",
          "type": "address"
        },
        {
          "internalType": "string",
          "name": "baseURI",
          "type": "string"
        }
      ],
      "stateMutability": "nonpayable",
      "type": "constructor"
    },
    {
      "anonymous": false,
      "inputs": [
        {
          "indexed": true,
          "internalType": "address",
          "name": "account",
          "type": "address"
        },
        {
          "indexed": true,
          "internalType": "address",
          "name": "sender",
          "type": "address"
        }
      ],
      "name": "AdminApproved",
      "type": "event"
    },
    {
      "anonymous": false,
      "inputs": [
        {
          "indexed": true,
          "internalType": "address",
          "name": "account",
          "type": "address"
        },
        {
          "indexed": true,
          "internalType": "address",
          "name": "sender",
          "type": "address"
        }
      ],
      "name": "AdminRevoked",
      "type": "event"
    },
    {
      "anonymous": false,
      "inputs": [
        {
          "indexed": true,
          "internalType": "address",
          "name": "owner",
          "type": "address"
        },
        {
          "indexed": true,
          "internalType": "address",
          "name": "approved",
          "type": "address"
        },
        {
          "indexed": true,
          "internalType": "uint256",
          "name": "tokenId",
          "type": "uint256"
        }
      ],
      "name": "Approval",
      "type": "event"
    },
    {
      "anonymous": false,
      "inputs": [
        {
          "indexed": true,
          "internalType": "address",
          "name": "owner",
          "type": "address"
        },
        {
          "indexed": true,
          "internalType": "address",
          "name": "operator",
          "type": "address"
        },
        {
          "indexed": false,
          "internalType": "bool",
          "name": "approved",
          "type": "bool"
        }
      ],
      "name": "ApprovalForAll",
      "type": "event"
    },
    {
      "anonymous": false,
      "inputs": [
        {
          "indexed": false,
          "internalType": "address",
          "name": "sender",
          "type": "address"
        },
        {
          "indexed": false,
          "internalType": "uint256",
          "name": "tokenId",
          "type": "uint256"
        },
        {
          "indexed": false,
          "internalType": "uint256",
          "name": "characterIndex",
          "type": "uint256"
        }
      ],
      "name": "CardNFTMinted",
      "type": "event"
    },
    {
      "anonymous": false,
      "inputs": [
        {
          "indexed": true,
          "internalType": "address",
          "name": "previousOwner",
          "type": "address"
        },
        {
          "indexed": true,
          "internalType": "address",
          "name": "newOwner",
          "type": "address"
        }
      ],
      "name": "OwnershipTransferred",
      "type": "event"
    },
    {
      "anonymous": false,
      "inputs": [
        {
          "indexed": true,
          "internalType": "address",
          "name": "from",
          "type": "address"
        },
        {
          "indexed": true,
          "internalType": "address",
          "name": "to",
          "type": "address"
        },
        {
          "indexed": true,
          "internalType": "uint256",
          "name": "tokenId",
          "type": "uint256"
        }
      ],
      "name": "Transfer",
      "type": "event"
    },
    {
      "inputs": [],
      "name": "MAX_PER_MINT",
      "outputs": [
        {
          "internalType": "uint256",
          "name": "",
          "type": "uint256"
        }
      ],
      "stateMutability": "view",
      "type": "function"
    },
    {
      "inputs": [],
      "name": "MAX_SUPPLY",
      "outputs": [
        {
          "internalType": "uint256",
          "name": "",
          "type": "uint256"
        }
      ],
      "stateMutability": "view",
      "type": "function"
    },
    {
      "inputs": [],
      "name": "PRICE",
      "outputs": [
        {
          "internalType": "uint256",
          "name": "",
          "type": "uint256"
        }
      ],
      "stateMutability": "view",
      "type": "function"
    },
    {
      "inputs": [],
      "name": "_script",
      "outputs": [
        {
          "internalType": "string",
          "name": "",
          "type": "string"
        }
      ],
      "stateMutability": "view",
      "type": "function"
    },
    {
      "inputs": [
        {
          "internalType": "address",
          "name": "to",
          "type": "address"
        },
        {
          "internalType": "uint256",
          "name": "tokenId",
          "type": "uint256"
        }
      ],
      "name": "approve",
      "outputs": [],
      "stateMutability": "nonpayable",
      "type": "function"
    },
    {
      "inputs": [
        {
          "internalType": "address",
          "name": "admin",
          "type": "address"
        }
      ],
      "name": "approveAdmin",
      "outputs": [],
      "stateMutability": "nonpayable",
      "type": "function"
    },
    {
      "inputs": [
        {
          "internalType": "address",
          "name": "owner",
          "type": "address"
        }
      ],
      "name": "balanceOf",
      "outputs": [
        {
          "internalType": "uint256",
          "name": "",
          "type": "uint256"
        }
      ],
      "stateMutability": "view",
      "type": "function"
    },
    {
      "inputs": [],
      "name": "baseTokenURI",
      "outputs": [
        {
          "internalType": "string",
          "name": "",
          "type": "string"
        }
      ],
      "stateMutability": "view",
      "type": "function"
    },
    {
      "inputs": [],
      "name": "getAdmins",
      "outputs": [
        {
          "internalType": "address[]",
          "name": "admins",
          "type": "address[]"
        }
      ],
      "stateMutability": "view",
      "type": "function"
    },
    {
      "inputs": [
        {
          "internalType": "uint256",
          "name": "tokenId",
          "type": "uint256"
        }
      ],
      "name": "getApproved",
      "outputs": [
        {
          "internalType": "address",
          "name": "",
          "type": "address"
        }
      ],
      "stateMutability": "view",
      "type": "function"
    },
    {
      "inputs": [
        {
          "internalType": "address",
          "name": "admin",
          "type": "address"
        }
      ],
      "name": "isAdmin",
      "outputs": [
        {
          "internalType": "bool",
          "name": "",
          "type": "bool"
        }
      ],
      "stateMutability": "view",
      "type": "function"
    },
    {
      "inputs": [
        {
          "internalType": "address",
          "name": "owner",
          "type": "address"
        },
        {
          "internalType": "address",
          "name": "operator",
          "type": "address"
        }
      ],
      "name": "isApprovedForAll",
      "outputs": [
        {
          "internalType": "bool",
          "name": "",
          "type": "bool"
        }
      ],
      "stateMutability": "view",
      "type": "function"
    },
    {
      "inputs": [
        {
          "internalType": "uint16",
          "name": "_count",
          "type": "uint16"
        },
        {
          "internalType": "string",
          "name": "name",
          "type": "string"
        },
        {
          "internalType": "string",
          "name": "description",
          "type": "string"
        },
        {
          "internalType": "string",
          "name": "image",
          "type": "string"
        },
        {
          "internalType": "string",
          "name": "attributes",
          "type": "string"
        }
      ],
      "name": "mint",
      "outputs": [],
      "stateMutability": "payable",
      "type": "function"
    },
    {
      "inputs": [],
      "name": "name",
      "outputs": [
        {
          "internalType": "string",
          "name": "",
          "type": "string"
        }
      ],
      "stateMutability": "view",
      "type": "function"
    },
    {
      "inputs": [
        {
          "internalType": "uint256",
          "name": "",
          "type": "uint256"
        }
      ],
      "name": "nftHolderAttributes",
      "outputs": [
        {
          "internalType": "string",
          "name": "name",
          "type": "string"
        },
        {
          "internalType": "string",
          "name": "imageURI",
          "type": "string"
        },
        {
          "internalType": "string",
          "name": "description",
          "type": "string"
        },
        {
          "internalType": "string",
          "name": "attributes",
          "type": "string"
        }
      ],
      "stateMutability": "view",
      "type": "function"
    },
    {
      "inputs": [
        {
          "internalType": "address",
          "name": "",
          "type": "address"
        }
      ],
      "name": "nftHolders",
      "outputs": [
        {
          "internalType": "uint256",
          "name": "",
          "type": "uint256"
        }
      ],
      "stateMutability": "view",
      "type": "function"
    },
    {
      "inputs": [],
      "name": "owner",
      "outputs": [
        {
          "internalType": "address",
          "name": "",
          "type": "address"
        }
      ],
      "stateMutability": "view",
      "type": "function"
    },
    {
      "inputs": [
        {
          "internalType": "uint256",
          "name": "tokenId",
          "type": "uint256"
        }
      ],
      "name": "ownerOf",
      "outputs": [
        {
          "internalType": "address",
          "name": "",
          "type": "address"
        }
      ],
      "stateMutability": "view",
      "type": "function"
    },
    {
      "inputs": [],
      "name": "renounceOwnership",
      "outputs": [],
      "stateMutability": "nonpayable",
      "type": "function"
    },
    {
      "inputs": [
        {
          "internalType": "address",
          "name": "admin",
          "type": "address"
        }
      ],
      "name": "revokeAdmin",
      "outputs": [],
      "stateMutability": "nonpayable",
      "type": "function"
    },
    {
      "inputs": [
        {
          "internalType": "address",
          "name": "from",
          "type": "address"
        },
        {
          "internalType": "address",
          "name": "to",
          "type": "address"
        },
        {
          "internalType": "uint256",
          "name": "tokenId",
          "type": "uint256"
        }
      ],
      "name": "safeTransferFrom",
      "outputs": [],
      "stateMutability": "nonpayable",
      "type": "function"
    },
    {
      "inputs": [
        {
          "internalType": "address",
          "name": "from",
          "type": "address"
        },
        {
          "internalType": "address",
          "name": "to",
          "type": "address"
        },
        {
          "internalType": "uint256",
          "name": "tokenId",
          "type": "uint256"
        },
        {
          "internalType": "bytes",
          "name": "_data",
          "type": "bytes"
        }
      ],
      "name": "safeTransferFrom",
      "outputs": [],
      "stateMutability": "nonpayable",
      "type": "function"
    },
    {
      "inputs": [
        {
          "internalType": "address",
          "name": "operator",
          "type": "address"
        },
        {
          "internalType": "bool",
          "name": "approved",
          "type": "bool"
        }
      ],
      "name": "setApprovalForAll",
      "outputs": [],
      "stateMutability": "nonpayable",
      "type": "function"
    },
    {
      "inputs": [
        {
          "internalType": "string",
          "name": "_baseTokenURI",
          "type": "string"
        }
      ],
      "name": "setBaseURI",
      "outputs": [],
      "stateMutability": "nonpayable",
      "type": "function"
    },
    {
      "inputs": [],
      "name": "splitWithdraw",
      "outputs": [],
      "stateMutability": "payable",
      "type": "function"
    },
    {
      "inputs": [
        {
          "internalType": "bytes4",
          "name": "interfaceId",
          "type": "bytes4"
        }
      ],
      "name": "supportsInterface",
      "outputs": [
        {
          "internalType": "bool",
          "name": "",
          "type": "bool"
        }
      ],
      "stateMutability": "view",
      "type": "function"
    },
    {
      "inputs": [],
      "name": "symbol",
      "outputs": [
        {
          "internalType": "string",
          "name": "",
          "type": "string"
        }
      ],
      "stateMutability": "view",
      "type": "function"
    },
    {
      "inputs": [
        {
          "internalType": "uint256",
          "name": "index",
          "type": "uint256"
        }
      ],
      "name": "tokenByIndex",
      "outputs": [
        {
          "internalType": "uint256",
          "name": "",
          "type": "uint256"
        }
      ],
      "stateMutability": "view",
      "type": "function"
    },
    {
      "inputs": [
        {
          "internalType": "address",
          "name": "owner",
          "type": "address"
        },
        {
          "internalType": "uint256",
          "name": "index",
          "type": "uint256"
        }
      ],
      "name": "tokenOfOwnerByIndex",
      "outputs": [
        {
          "internalType": "uint256",
          "name": "",
          "type": "uint256"
        }
      ],
      "stateMutability": "view",
      "type": "function"
    },
    {
      "inputs": [
        {
          "internalType": "uint256",
          "name": "tokenId",
          "type": "uint256"
        }
      ],
      "name": "tokenURI",
      "outputs": [
        {
          "internalType": "string",
          "name": "",
          "type": "string"
        }
      ],
      "stateMutability": "view",
      "type": "function"
    },
    {
      "inputs": [
        {
          "internalType": "address",
          "name": "creator",
          "type": "address"
        },
        {
          "internalType": "uint256",
          "name": "tokenId",
          "type": "uint256"
        }
      ],
      "name": "tokenURI",
      "outputs": [
        {
          "internalType": "string",
          "name": "",
          "type": "string"
        }
      ],
      "stateMutability": "view",
      "type": "function"
    },
    {
      "inputs": [
        {
          "internalType": "address",
          "name": "_owner",
          "type": "address"
        }
      ],
      "name": "tokensOfOwner",
      "outputs": [
        {
          "internalType": "uint256[]",
          "name": "",
          "type": "uint256[]"
        }
      ],
      "stateMutability": "view",
      "type": "function"
    },
    {
      "inputs": [],
      "name": "totalSupply",
      "outputs": [
        {
          "internalType": "uint256",
          "name": "",
          "type": "uint256"
        }
      ],
      "stateMutability": "view",
      "type": "function"
    },
    {
      "inputs": [
        {
          "internalType": "address",
          "name": "from",
          "type": "address"
        },
        {
          "internalType": "address",
          "name": "to",
          "type": "address"
        },
        {
          "internalType": "uint256",
          "name": "tokenId",
          "type": "uint256"
        }
      ],
      "name": "transferFrom",
      "outputs": [],
      "stateMutability": "nonpayable",
      "type": "function"
    },
    {
      "inputs": [
        {
          "internalType": "address",
          "name": "newOwner",
          "type": "address"
        }
      ],
      "name": "transferOwnership",
      "outputs": [],
      "stateMutability": "nonpayable",
      "type": "function"
    },
    {
      "inputs": [],
      "name": "withdraw",
      "outputs": [],
      "stateMutability": "payable",
      "type": "function"
    }
  ],
  "bytecode": "0x60806040523480156200001157600080fd5b50604051620061f9380380620061f98339818101604052810190620000379190620004f0565b6040518060400160405280601081526020017f53574d5320436f6c6c65637461626c65000000000000000000000000000000008152506040518060400160405280600781526020017f53574d53434f4c00000000000000000000000000000000000000000000000000815250620000c3620000b76200021760201b60201c565b6200021f60201b60201c565b8160039080519060200190620000db929190620003b7565b508060049080519060200190620000f4929190620003b7565b50505081600e60006101000a81548173ffffffffffffffffffffffffffffffffffffffff021916908373ffffffffffffffffffffffffffffffffffffffff16021790555084600f60006101000a81548173ffffffffffffffffffffffffffffffffffffffff021916908373ffffffffffffffffffffffffffffffffffffffff16021790555083601060006101000a81548173ffffffffffffffffffffffffffffffffffffffff021916908373ffffffffffffffffffffffffffffffffffffffff16021790555082601160006101000a81548173ffffffffffffffffffffffffffffffffffffffff021916908373ffffffffffffffffffffffffffffffffffffffff1602179055506200020c81620002e360201b60201c565b50505050506200077f565b600033905090565b60008060009054906101000a900473ffffffffffffffffffffffffffffffffffffffff169050816000806101000a81548173ffffffffffffffffffffffffffffffffffffffff021916908373ffffffffffffffffffffffffffffffffffffffff1602179055508173ffffffffffffffffffffffffffffffffffffffff168173ffffffffffffffffffffffffffffffffffffffff167f8be0079c531659141344cd1fd0a4f28419497f9722a3daafe3b4186f6b6457e060405160405180910390a35050565b620002f36200021760201b60201c565b73ffffffffffffffffffffffffffffffffffffffff16620003196200038e60201b60201c565b73ffffffffffffffffffffffffffffffffffffffff161462000372576040517f08c379a00000000000000000000000000000000000000000000000000000000081526004016200036990620005cd565b60405180910390fd5b80601490805190602001906200038a929190620003b7565b5050565b60008060009054906101000a900473ffffffffffffffffffffffffffffffffffffffff16905090565b828054620003c590620006d1565b90600052602060002090601f016020900481019282620003e9576000855562000435565b82601f106200040457805160ff191683800117855562000435565b8280016001018555821562000435579182015b828111156200043457825182559160200191906001019062000417565b5b50905062000444919062000448565b5090565b5b808211156200046357600081600090555060010162000449565b5090565b60006200047e620004788462000623565b620005ef565b9050828152602081018484840111156200049757600080fd5b620004a48482856200069b565b509392505050565b600081519050620004bd8162000765565b92915050565b600082601f830112620004d557600080fd5b8151620004e784826020860162000467565b91505092915050565b600080600080600060a086880312156200050957600080fd5b60006200051988828901620004ac565b95505060206200052c88828901620004ac565b94505060406200053f88828901620004ac565b93505060606200055288828901620004ac565b925050608086015167ffffffffffffffff8111156200057057600080fd5b6200057e88828901620004c3565b9150509295509295909350565b60006200059a60208362000656565b91507f4f776e61626c653a2063616c6c6572206973206e6f7420746865206f776e65726000830152602082019050919050565b60006020820190508181036000830152620005e8816200058b565b9050919050565b6000604051905081810181811067ffffffffffffffff8211171562000619576200061862000736565b5b8060405250919050565b600067ffffffffffffffff82111562000641576200064062000736565b5b601f19601f8301169050602081019050919050565b600082825260208201905092915050565b600062000674826200067b565b9050919050565b600073ffffffffffffffffffffffffffffffffffffffff82169050919050565b60005b83811015620006bb5780820151818401526020810190506200069e565b83811115620006cb576000848401525b50505050565b60006002820490506001821680620006ea57607f821691505b6020821081141562000701576200070062000707565b5b50919050565b7f4e487b7100000000000000000000000000000000000000000000000000000000600052602260045260246000fd5b7f4e487b7100000000000000000000000000000000000000000000000000000000600052604160045260246000fd5b620007708162000667565b81146200077c57600080fd5b50565b615a6a806200078f6000396000f3fe60806040526004361061020f5760003560e01c80636d73e6691161011857806398da4c95116100a0578063c87b56dd1161006f578063c87b56dd1461078b578063d547cfb7146107c8578063e985e9c5146107f3578063e9dc637514610830578063f2fde38b1461086d5761020f565b806398da4c95146106ef578063a22cb4651461072f578063af573db214610758578063b88d4fde146107625761020f565b80638462151c116100e75780638462151c146106065780638a016249146106435780638d859f3e1461066e5780638da5cb5b1461069957806395d89b41146106c45761020f565b80636d73e6691461054c57806370a0823114610575578063715018a6146105b25780637df124a1146105c95761020f565b80632f745c591161019b57806342842e0e1161016a57806342842e0e146104645780634f6ccce71461048d57806355f804b3146104ca5780636352211e146104f357806367695897146105305761020f565b80632f745c59146103c757806331ae450b1461040457806332cb6b0c1461042f5780633ccfd60b1461045a5761020f565b806309d42b30116101e257806309d42b30146102e257806318160ddd1461030d57806323b872dd1461033857806324d7806c146103615780632d3456701461039e5761020f565b806301ffc9a71461021457806306fdde0314610251578063081812fc1461027c578063095ea7b3146102b9575b600080fd5b34801561022057600080fd5b5061023b60048036038101906102369190613fab565b610896565b60405161024891906150d0565b60405180910390f35b34801561025d57600080fd5b50610266610920565b60405161027391906150eb565b60405180910390f35b34801561028857600080fd5b506102a3600480360381019061029e9190614115565b6109b2565b6040516102b09190614fee565b60405180910390f35b3480156102c557600080fd5b506102e060048036038101906102db9190613f6f565b610a37565b005b3480156102ee57600080fd5b506102f7610b4f565b60405161030491906154ee565b60405180910390f35b34801561031957600080fd5b50610322610b54565b60405161032f91906154ee565b60405180910390f35b34801561034457600080fd5b5061035f600480360381019061035a9190613e69565b610b61565b005b34801561036d57600080fd5b5061038860048036038101906103839190613e04565b610bc1565b60405161039591906150d0565b60405180910390f35b3480156103aa57600080fd5b506103c560048036038101906103c09190613e04565b610c1b565b005b3480156103d357600080fd5b506103ee60048036038101906103e99190613f6f565b610d23565b6040516103fb91906154ee565b60405180910390f35b34801561041057600080fd5b50610419610dc8565b604051610426919061508c565b60405180910390f35b34801561043b57600080fd5b50610444610ef6565b60405161045191906154ee565b60405180910390f35b610462610efb565b005b34801561047057600080fd5b5061048b60048036038101906104869190613e69565b61106f565b005b34801561049957600080fd5b506104b460048036038101906104af9190614115565b61108f565b6040516104c191906154ee565b60405180910390f35b3480156104d657600080fd5b506104f160048036038101906104ec9190613ffd565b611126565b005b3480156104ff57600080fd5b5061051a60048036038101906105159190614115565b6111bc565b6040516105279190614fee565b60405180910390f35b61054a6004803603810190610545919061403e565b61126e565b005b34801561055857600080fd5b50610573600480360381019061056e9190613e04565b6114fc565b005b34801561058157600080fd5b5061059c60048036038101906105979190613e04565b611603565b6040516105a991906154ee565b60405180910390f35b3480156105be57600080fd5b506105c76116bb565b005b3480156105d557600080fd5b506105f060048036038101906105eb9190613e04565b611743565b6040516105fd91906154ee565b60405180910390f35b34801561061257600080fd5b5061062d60048036038101906106289190613e04565b61175b565b60405161063a91906150ae565b60405180910390f35b34801561064f57600080fd5b50610658611855565b60405161066591906150eb565b60405180910390f35b34801561067a57600080fd5b506106836118e3565b60405161069091906154ee565b60405180910390f35b3480156106a557600080fd5b506106ae6118ee565b6040516106bb9190614fee565b60405180910390f35b3480156106d057600080fd5b506106d9611917565b6040516106e691906150eb565b60405180910390f35b3480156106fb57600080fd5b5061071660048036038101906107119190614115565b6119a9565b604051610726949392919061510d565b60405180910390f35b34801561073b57600080fd5b5061075660048036038101906107519190613f33565b611bf9565b005b610760611c0f565b005b34801561076e57600080fd5b5061078960048036038101906107849190613eb8565b611f8b565b005b34801561079757600080fd5b506107b260048036038101906107ad9190614115565b611fed565b6040516107bf91906150eb565b60405180910390f35b3480156107d457600080fd5b506107dd612094565b6040516107ea91906150eb565b60405180910390f35b3480156107ff57600080fd5b5061081a60048036038101906108159190613e2d565b612122565b60405161082791906150d0565b60405180910390f35b34801561083c57600080fd5b5061085760048036038101906108529190613f6f565b6121b6565b60405161086491906150eb565b60405180910390f35b34801561087957600080fd5b50610894600480360381019061088f9190613e04565b6122f8565b005b60007fe9dc6375000000000000000000000000000000000000000000000000000000007bffffffffffffffffffffffffffffffffffffffffffffffffffffffff1916827bffffffffffffffffffffffffffffffffffffffffffffffffffffffff191614806109095750610908826123f0565b5b8061091957506109188261246a565b5b9050919050565b60606003805461092f90615848565b80601f016020809104026020016040519081016040528092919081815260200182805461095b90615848565b80156109a85780601f1061097d576101008083540402835291602001916109a8565b820191906000526020600020905b81548152906001019060200180831161098b57829003601f168201915b5050505050905090565b60006109bd826124e4565b6109fc576040517f08c379a00000000000000000000000000000000000000000000000000000000081526004016109f3906153ce565b60405180910390fd5b6007600083815260200190815260200160002060009054906101000a900473ffffffffffffffffffffffffffffffffffffffff169050919050565b6000610a42826111bc565b90508073ffffffffffffffffffffffffffffffffffffffff168373ffffffffffffffffffffffffffffffffffffffff161415610ab3576040517f08c379a0000000000000000000000000000000000000000000000000000000008152600401610aaa9061544e565b60405180910390fd5b8073ffffffffffffffffffffffffffffffffffffffff16610ad2612550565b73ffffffffffffffffffffffffffffffffffffffff161480610b015750610b0081610afb612550565b612122565b5b610b40576040517f08c379a0000000000000000000000000000000000000000000000000000000008152600401610b379061530e565b60405180910390fd5b610b4a8383612558565b505050565b600581565b6000600b80549050905090565b610b72610b6c612550565b82612611565b610bb1576040517f08c379a0000000000000000000000000000000000000000000000000000000008152600401610ba89061548e565b60405180910390fd5b610bbc8383836126ef565b505050565b60008173ffffffffffffffffffffffffffffffffffffffff16610be26118ee565b73ffffffffffffffffffffffffffffffffffffffff161480610c145750610c1382600161294b90919063ffffffff16565b5b9050919050565b610c23612550565b73ffffffffffffffffffffffffffffffffffffffff16610c416118ee565b73ffffffffffffffffffffffffffffffffffffffff1614610c97576040517f08c379a0000000000000000000000000000000000000000000000000000000008152600401610c8e906153ee565b60405180910390fd5b610cab81600161294b90919063ffffffff16565b15610d20573373ffffffffffffffffffffffffffffffffffffffff168173ffffffffffffffffffffffffffffffffffffffff167f7c0c3c84c67c85fcac635147348bfe374c24a1a93d0366d1cfe9d8853cbf89d560405160405180910390a3610d1e81600161297b90919063ffffffff16565b505b50565b6000610d2e83611603565b8210610d6f576040517f08c379a0000000000000000000000000000000000000000000000000000000008152600401610d669061518e565b60405180910390fd5b600960008473ffffffffffffffffffffffffffffffffffffffff1673ffffffffffffffffffffffffffffffffffffffff168152602001908152602001600020600083815260200190815260200160002054905092915050565b6060610dd460016129ab565b67ffffffffffffffff811115610e13577f4e487b7100000000000000000000000000000000000000000000000000000000600052604160045260246000fd5b604051908082528060200260200182016040528015610e415781602001602082028036833780820191505090505b50905060005b610e5160016129ab565b811015610ef257610e6c8160016129c090919063ffffffff16565b828281518110610ea5577f4e487b7100000000000000000000000000000000000000000000000000000000600052603260045260246000fd5b602002602001019073ffffffffffffffffffffffffffffffffffffffff16908173ffffffffffffffffffffffffffffffffffffffff16815250508080610eea9061587a565b915050610e47565b5090565b606481565b610f03612550565b73ffffffffffffffffffffffffffffffffffffffff16610f216118ee565b73ffffffffffffffffffffffffffffffffffffffff1614610f77576040517f08c379a0000000000000000000000000000000000000000000000000000000008152600401610f6e906153ee565b60405180910390fd5b600047905060008111610fbf576040517f08c379a0000000000000000000000000000000000000000000000000000000008152600401610fb6906153ae565b60405180910390fd5b60003373ffffffffffffffffffffffffffffffffffffffff1682604051610fe590614fd9565b60006040518083038185875af1925050503d8060008114611022576040519150601f19603f3d011682016040523d82523d6000602084013e611027565b606091505b505090508061106b576040517f08c379a00000000000000000000000000000000000000000000000000000000081526004016110629061546e565b60405180910390fd5b5050565b61108a83838360405180602001604052806000815250611f8b565b505050565b6000611099610b54565b82106110da576040517f08c379a00000000000000000000000000000000000000000000000000000000081526004016110d1906154ce565b60405180910390fd5b600b8281548110611114577f4e487b7100000000000000000000000000000000000000000000000000000000600052603260045260246000fd5b90600052602060002001549050919050565b61112e612550565b73ffffffffffffffffffffffffffffffffffffffff1661114c6118ee565b73ffffffffffffffffffffffffffffffffffffffff16146111a2576040517f08c379a0000000000000000000000000000000000000000000000000000000008152600401611199906153ee565b60405180910390fd5b80601490805190602001906111b8929190613c13565b5050565b6000806005600084815260200190815260200160002060009054906101000a900473ffffffffffffffffffffffffffffffffffffffff169050600073ffffffffffffffffffffffffffffffffffffffff168173ffffffffffffffffffffffffffffffffffffffff161415611265576040517f08c379a000000000000000000000000000000000000000000000000000000000815260040161125c9061536e565b60405180910390fd5b80915050919050565b3373ffffffffffffffffffffffffffffffffffffffff1661128d6118ee565b73ffffffffffffffffffffffffffffffffffffffff1614806112bf57506112be33600161294b90919063ffffffff16565b5b6112fe576040517f08c379a00000000000000000000000000000000000000000000000000000000081526004016112f5906154ae565b60405180910390fd5b600061130a600d6129da565b905060646113258761ffff16836129e890919063ffffffff16565b1115611366576040517f08c379a000000000000000000000000000000000000000000000000000000000815260040161135d9061528e565b60405180910390fd5b60008661ffff1611801561137f575060058661ffff1611155b6113be576040517f08c379a00000000000000000000000000000000000000000000000000000000081526004016113b5906152ae565b60405180910390fd5b6113dc8661ffff16662386f26fc100006129fe90919063ffffffff16565b34101561141e576040517f08c379a00000000000000000000000000000000000000000000000000000000081526004016114159061526e565b60405180910390fd5b60405180608001604052808681526020018481526020018581526020018381525060156000838152602001908152602001600020600082015181600001908051906020019061146e929190613c13565b50602082015181600101908051906020019061148b929190613c13565b5060408201518160020190805190602001906114a8929190613c13565b5060608201518160030190805190602001906114c5929190613c13565b5090505060005b8661ffff168110156114f3576114e0612a14565b80806114eb9061587a565b9150506114cc565b50505050505050565b611504612550565b73ffffffffffffffffffffffffffffffffffffffff166115226118ee565b73ffffffffffffffffffffffffffffffffffffffff1614611578576040517f08c379a000000000000000000000000000000000000000000000000000000000815260040161156f906153ee565b60405180910390fd5b61158c81600161294b90919063ffffffff16565b611600573373ffffffffffffffffffffffffffffffffffffffff168173ffffffffffffffffffffffffffffffffffffffff167f7e1a1a08d52e4ba0e21554733d66165fd5151f99460116223d9e3a608eec5cb160405160405180910390a36115fe816001612ab890919063ffffffff16565b505b50565b60008073ffffffffffffffffffffffffffffffffffffffff168273ffffffffffffffffffffffffffffffffffffffff161415611674576040517f08c379a000000000000000000000000000000000000000000000000000000000815260040161166b9061532e565b60405180910390fd5b600660008373ffffffffffffffffffffffffffffffffffffffff1673ffffffffffffffffffffffffffffffffffffffff168152602001908152602001600020549050919050565b6116c3612550565b73ffffffffffffffffffffffffffffffffffffffff166116e16118ee565b73ffffffffffffffffffffffffffffffffffffffff1614611737576040517f08c379a000000000000000000000000000000000000000000000000000000000815260040161172e906153ee565b60405180910390fd5b6117416000612ae8565b565b60166020528060005260406000206000915090505481565b6060600061176883611603565b905060008167ffffffffffffffff8111156117ac577f4e487b7100000000000000000000000000000000000000000000000000000000600052604160045260246000fd5b6040519080825280602002602001820160405280156117da5781602001602082028036833780820191505090505b50905060005b8281101561184a576117f28582610d23565b82828151811061182b577f4e487b7100000000000000000000000000000000000000000000000000000000600052603260045260246000fd5b60200260200101818152505080806118429061587a565b9150506117e0565b508092505050919050565b6013805461186290615848565b80601f016020809104026020016040519081016040528092919081815260200182805461188e90615848565b80156118db5780601f106118b0576101008083540402835291602001916118db565b820191906000526020600020905b8154815290600101906020018083116118be57829003601f168201915b505050505081565b662386f26fc1000081565b60008060009054906101000a900473ffffffffffffffffffffffffffffffffffffffff16905090565b60606004805461192690615848565b80601f016020809104026020016040519081016040528092919081815260200182805461195290615848565b801561199f5780601f106119745761010080835404028352916020019161199f565b820191906000526020600020905b81548152906001019060200180831161198257829003601f168201915b5050505050905090565b60156020528060005260406000206000915090508060000180546119cc90615848565b80601f01602080910402602001604051908101604052809291908181526020018280546119f890615848565b8015611a455780601f10611a1a57610100808354040283529160200191611a45565b820191906000526020600020905b815481529060010190602001808311611a2857829003601f168201915b505050505090806001018054611a5a90615848565b80601f0160208091040260200160405190810160405280929190818152602001828054611a8690615848565b8015611ad35780601f10611aa857610100808354040283529160200191611ad3565b820191906000526020600020905b815481529060010190602001808311611ab657829003601f168201915b505050505090806002018054611ae890615848565b80601f0160208091040260200160405190810160405280929190818152602001828054611b1490615848565b8015611b615780601f10611b3657610100808354040283529160200191611b61565b820191906000526020600020905b815481529060010190602001808311611b4457829003601f168201915b505050505090806003018054611b7690615848565b80601f0160208091040260200160405190810160405280929190818152602001828054611ba290615848565b8015611bef5780601f10611bc457610100808354040283529160200191611bef565b820191906000526020600020905b815481529060010190602001808311611bd257829003601f168201915b5050505050905084565b611c0b611c04612550565b8383612bac565b5050565b611c17612550565b73ffffffffffffffffffffffffffffffffffffffff16611c356118ee565b73ffffffffffffffffffffffffffffffffffffffff1614611c8b576040517f08c379a0000000000000000000000000000000000000000000000000000000008152600401611c82906153ee565b60405180910390fd5b600047905060008111611cd3576040517f08c379a0000000000000000000000000000000000000000000000000000000008152600401611cca906153ae565b60405180910390fd5b6000606482611ce291906156c5565b90506000604682611cf391906156f6565b90506000601983611d0491906156f6565b90506000600584611d1591906156f6565b90506000600f60009054906101000a900473ffffffffffffffffffffffffffffffffffffffff1673ffffffffffffffffffffffffffffffffffffffff1684604051611d5f90614fd9565b60006040518083038185875af1925050503d8060008114611d9c576040519150601f19603f3d011682016040523d82523d6000602084013e611da1565b606091505b505090506000601060009054906101000a900473ffffffffffffffffffffffffffffffffffffffff1673ffffffffffffffffffffffffffffffffffffffff1684604051611ded90614fd9565b60006040518083038185875af1925050503d8060008114611e2a576040519150601f19603f3d011682016040523d82523d6000602084013e611e2f565b606091505b505090506000601160009054906101000a900473ffffffffffffffffffffffffffffffffffffffff1673ffffffffffffffffffffffffffffffffffffffff1684604051611e7b90614fd9565b60006040518083038185875af1925050503d8060008114611eb8576040519150601f19603f3d011682016040523d82523d6000602084013e611ebd565b606091505b5050905082611f01576040517f08c379a0000000000000000000000000000000000000000000000000000000008152600401611ef89061520e565b60405180910390fd5b81611f41576040517f08c379a0000000000000000000000000000000000000000000000000000000008152600401611f389061534e565b60405180910390fd5b80611f81576040517f08c379a0000000000000000000000000000000000000000000000000000000008152600401611f789061516e565b60405180910390fd5b5050505050505050565b611f9c611f96612550565b83612611565b611fdb576040517f08c379a0000000000000000000000000000000000000000000000000000000008152600401611fd29061548e565b60405180910390fd5b611fe784848484612d19565b50505050565b6060611ff8826124e4565b612037576040517f08c379a000000000000000000000000000000000000000000000000000000000815260040161202e9061542e565b60405180910390fd5b6000612041612d75565b90506000815111612061576040518060200160405280600081525061208c565b8061206b84612e07565b60405160200161207c929190614f1d565b6040516020818303038152906040525b915050919050565b601480546120a190615848565b80601f01602080910402602001604051908101604052809291908181526020018280546120cd90615848565b801561211a5780601f106120ef5761010080835404028352916020019161211a565b820191906000526020600020905b8154815290600101906020018083116120fd57829003601f168201915b505050505081565b6000600860008473ffffffffffffffffffffffffffffffffffffffff1673ffffffffffffffffffffffffffffffffffffffff16815260200190815260200160002060008373ffffffffffffffffffffffffffffffffffffffff1673ffffffffffffffffffffffffffffffffffffffff16815260200190815260200160002060009054906101000a900460ff16905092915050565b6060600e60009054906101000a900473ffffffffffffffffffffffffffffffffffffffff1673ffffffffffffffffffffffffffffffffffffffff168373ffffffffffffffffffffffffffffffffffffffff16148015612216575060125482145b612255576040517f08c379a000000000000000000000000000000000000000000000000000000000815260040161224c906152ee565b60405180910390fd5b6015600060125481526020019081526020016000206000016015600060125481526020019081526020016000206002016015600060125481526020019081526020016000206001016015600060125481526020019081526020016000206001016015600060125481526020019081526020016000206003016040516020016122e1959493929190614f41565b604051602081830303815290604052905092915050565b612300612550565b73ffffffffffffffffffffffffffffffffffffffff1661231e6118ee565b73ffffffffffffffffffffffffffffffffffffffff1614612374576040517f08c379a000000000000000000000000000000000000000000000000000000000815260040161236b906153ee565b60405180910390fd5b600073ffffffffffffffffffffffffffffffffffffffff168173ffffffffffffffffffffffffffffffffffffffff1614156123e4576040517f08c379a00000000000000000000000000000000000000000000000000000000081526004016123db906151ce565b60405180910390fd5b6123ed81612ae8565b50565b60007f553e757e000000000000000000000000000000000000000000000000000000007bffffffffffffffffffffffffffffffffffffffffffffffffffffffff1916827bffffffffffffffffffffffffffffffffffffffffffffffffffffffff19161480612463575061246282612fb4565b5b9050919050565b60007f780e9d63000000000000000000000000000000000000000000000000000000007bffffffffffffffffffffffffffffffffffffffffffffffffffffffff1916827bffffffffffffffffffffffffffffffffffffffffffffffffffffffff191614806124dd57506124dc8261301e565b5b9050919050565b60008073ffffffffffffffffffffffffffffffffffffffff166005600084815260200190815260200160002060009054906101000a900473ffffffffffffffffffffffffffffffffffffffff1673ffffffffffffffffffffffffffffffffffffffff1614159050919050565b600033905090565b816007600083815260200190815260200160002060006101000a81548173ffffffffffffffffffffffffffffffffffffffff021916908373ffffffffffffffffffffffffffffffffffffffff160217905550808273ffffffffffffffffffffffffffffffffffffffff166125cb836111bc565b73ffffffffffffffffffffffffffffffffffffffff167f8c5be1e5ebec7d5bd14f71427d1e84f3dd0314c0f7b2291e5b200ac8c7c3b92560405160405180910390a45050565b600061261c826124e4565b61265b576040517f08c379a0000000000000000000000000000000000000000000000000000000008152600401612652906152ce565b60405180910390fd5b6000612666836111bc565b90508073ffffffffffffffffffffffffffffffffffffffff168473ffffffffffffffffffffffffffffffffffffffff1614806126d557508373ffffffffffffffffffffffffffffffffffffffff166126bd846109b2565b73ffffffffffffffffffffffffffffffffffffffff16145b806126e657506126e58185612122565b5b91505092915050565b8273ffffffffffffffffffffffffffffffffffffffff1661270f826111bc565b73ffffffffffffffffffffffffffffffffffffffff1614612765576040517f08c379a000000000000000000000000000000000000000000000000000000000815260040161275c9061540e565b60405180910390fd5b600073ffffffffffffffffffffffffffffffffffffffff168273ffffffffffffffffffffffffffffffffffffffff1614156127d5576040517f08c379a00000000000000000000000000000000000000000000000000000000081526004016127cc9061522e565b60405180910390fd5b6127e0838383613100565b6127eb600082612558565b6001600660008573ffffffffffffffffffffffffffffffffffffffff1673ffffffffffffffffffffffffffffffffffffffff168152602001908152602001600020600082825461283b9190615750565b925050819055506001600660008473ffffffffffffffffffffffffffffffffffffffff1673ffffffffffffffffffffffffffffffffffffffff1681526020019081526020016000206000828254612892919061566f565b92505081905550816005600083815260200190815260200160002060006101000a81548173ffffffffffffffffffffffffffffffffffffffff021916908373ffffffffffffffffffffffffffffffffffffffff160217905550808273ffffffffffffffffffffffffffffffffffffffff168473ffffffffffffffffffffffffffffffffffffffff167fddf252ad1be2c89b69c2b068fc378daa952ba7f163c4a11628f55a4df523b3ef60405160405180910390a4505050565b6000612973836000018373ffffffffffffffffffffffffffffffffffffffff1660001b613214565b905092915050565b60006129a3836000018373ffffffffffffffffffffffffffffffffffffffff1660001b613237565b905092915050565b60006129b9826000016133bd565b9050919050565b60006129cf83600001836133ce565b60001c905092915050565b600081600001549050919050565b600081836129f6919061566f565b905092915050565b60008183612a0c91906156f6565b905092915050565b6000612a20600d6129da565b9050612a2c338261341f565b80601660003373ffffffffffffffffffffffffffffffffffffffff1673ffffffffffffffffffffffffffffffffffffffff16815260200190815260200160002081905550612a7a600d61343d565b7f10996d3735163ec820e09da0f6d7407380b7fa3f48b83fbc0e7216aa1d6d5df5338283604051612aad93929190615055565b60405180910390a150565b6000612ae0836000018373ffffffffffffffffffffffffffffffffffffffff1660001b613453565b905092915050565b60008060009054906101000a900473ffffffffffffffffffffffffffffffffffffffff169050816000806101000a81548173ffffffffffffffffffffffffffffffffffffffff021916908373ffffffffffffffffffffffffffffffffffffffff1602179055508173ffffffffffffffffffffffffffffffffffffffff168173ffffffffffffffffffffffffffffffffffffffff167f8be0079c531659141344cd1fd0a4f28419497f9722a3daafe3b4186f6b6457e060405160405180910390a35050565b8173ffffffffffffffffffffffffffffffffffffffff168373ffffffffffffffffffffffffffffffffffffffff161415612c1b576040517f08c379a0000000000000000000000000000000000000000000000000000000008152600401612c129061524e565b60405180910390fd5b80600860008573ffffffffffffffffffffffffffffffffffffffff1673ffffffffffffffffffffffffffffffffffffffff16815260200190815260200160002060008473ffffffffffffffffffffffffffffffffffffffff1673ffffffffffffffffffffffffffffffffffffffff16815260200190815260200160002060006101000a81548160ff0219169083151502179055508173ffffffffffffffffffffffffffffffffffffffff168373ffffffffffffffffffffffffffffffffffffffff167f17307eab39ab6107e8899845ad3d59bd9653f200f220920489ca2b5937696c3183604051612d0c91906150d0565b60405180910390a3505050565b612d248484846126ef565b612d30848484846134c3565b612d6f576040517f08c379a0000000000000000000000000000000000000000000000000000000008152600401612d66906151ae565b60405180910390fd5b50505050565b606060148054612d8490615848565b80601f0160208091040260200160405190810160405280929190818152602001828054612db090615848565b8015612dfd5780601f10612dd257610100808354040283529160200191612dfd565b820191906000526020600020905b815481529060010190602001808311612de057829003601f168201915b5050505050905090565b60606000821415612e4f576040518060400160405280600181526020017f30000000000000000000000000000000000000000000000000000000000000008152509050612faf565b600082905060005b60008214612e81578080612e6a9061587a565b915050600a82612e7a91906156c5565b9150612e57565b60008167ffffffffffffffff811115612ec3577f4e487b7100000000000000000000000000000000000000000000000000000000600052604160045260246000fd5b6040519080825280601f01601f191660200182016040528015612ef55781602001600182028036833780820191505090505b5090505b60008514612fa857600182612f0e9190615750565b9150600a85612f1d91906158c3565b6030612f29919061566f565b60f81b818381518110612f65577f4e487b7100000000000000000000000000000000000000000000000000000000600052603260045260246000fd5b60200101907effffffffffffffffffffffffffffffffffffffffffffffffffffffffffffff1916908160001a905350600a85612fa191906156c5565b9450612ef9565b8093505050505b919050565b60007f01ffc9a7000000000000000000000000000000000000000000000000000000007bffffffffffffffffffffffffffffffffffffffffffffffffffffffff1916827bffffffffffffffffffffffffffffffffffffffffffffffffffffffff1916149050919050565b60007f80ac58cd000000000000000000000000000000000000000000000000000000007bffffffffffffffffffffffffffffffffffffffffffffffffffffffff1916827bffffffffffffffffffffffffffffffffffffffffffffffffffffffff191614806130e957507f5b5e139f000000000000000000000000000000000000000000000000000000007bffffffffffffffffffffffffffffffffffffffffffffffffffffffff1916827bffffffffffffffffffffffffffffffffffffffffffffffffffffffff1916145b806130f957506130f8826123f0565b5b9050919050565b61310b83838361365a565b600073ffffffffffffffffffffffffffffffffffffffff168373ffffffffffffffffffffffffffffffffffffffff16141561314e576131498161365f565b61318d565b8173ffffffffffffffffffffffffffffffffffffffff168373ffffffffffffffffffffffffffffffffffffffff161461318c5761318b83826136a8565b5b5b600073ffffffffffffffffffffffffffffffffffffffff168273ffffffffffffffffffffffffffffffffffffffff1614156131d0576131cb81613815565b61320f565b8273ffffffffffffffffffffffffffffffffffffffff168273ffffffffffffffffffffffffffffffffffffffff161461320e5761320d8282613958565b5b5b505050565b600080836001016000848152602001908152602001600020541415905092915050565b600080836001016000848152602001908152602001600020549050600081146133b15760006001826132699190615750565b90506000600186600001805490506132819190615750565b905081811461333c5760008660000182815481106132c8577f4e487b7100000000000000000000000000000000000000000000000000000000600052603260045260246000fd5b9060005260206000200154905080876000018481548110613312577f4e487b7100000000000000000000000000000000000000000000000000000000600052603260045260246000fd5b90600052602060002001819055508387600101600083815260200190815260200160002081905550505b85600001805480613376577f4e487b7100000000000000000000000000000000000000000000000000000000600052603160045260246000fd5b6001900381819060005260206000200160009055905585600101600086815260200190815260200160002060009055600193505050506133b7565b60009150505b92915050565b600081600001805490509050919050565b600082600001828154811061340c577f4e487b7100000000000000000000000000000000000000000000000000000000600052603260045260246000fd5b9060005260206000200154905092915050565b6134398282604051806020016040528060008152506139d7565b5050565b6001816000016000828254019250508190555050565b600061345f8383613214565b6134b85782600001829080600181540180825580915050600190039060005260206000200160009091909190915055826000018054905083600101600084815260200190815260200160002081905550600190506134bd565b600090505b92915050565b60006134e48473ffffffffffffffffffffffffffffffffffffffff16613a32565b1561364d578373ffffffffffffffffffffffffffffffffffffffff1663150b7a0261350d612550565b8786866040518563ffffffff1660e01b815260040161352f9493929190615009565b602060405180830381600087803b15801561354957600080fd5b505af192505050801561357a57506040513d601f19601f820116820180604052508101906135779190613fd4565b60015b6135fd573d80600081146135aa576040519150601f19603f3d011682016040523d82523d6000602084013e6135af565b606091505b506000815114156135f5576040517f08c379a00000000000000000000000000000000000000000000000000000000081526004016135ec906151ae565b60405180910390fd5b805181602001fd5b63150b7a0260e01b7bffffffffffffffffffffffffffffffffffffffffffffffffffffffff1916817bffffffffffffffffffffffffffffffffffffffffffffffffffffffff191614915050613652565b600190505b949350505050565b505050565b600b80549050600c600083815260200190815260200160002081905550600b81908060018154018082558091505060019003906000526020600020016000909190919091505550565b600060016136b584611603565b6136bf9190615750565b90506000600a60008481526020019081526020016000205490508181146137a4576000600960008673ffffffffffffffffffffffffffffffffffffffff1673ffffffffffffffffffffffffffffffffffffffff168152602001908152602001600020600084815260200190815260200160002054905080600960008773ffffffffffffffffffffffffffffffffffffffff1673ffffffffffffffffffffffffffffffffffffffff16815260200190815260200160002060008481526020019081526020016000208190555081600a600083815260200190815260200160002081905550505b600a600084815260200190815260200160002060009055600960008573ffffffffffffffffffffffffffffffffffffffff1673ffffffffffffffffffffffffffffffffffffffff16815260200190815260200160002060008381526020019081526020016000206000905550505050565b60006001600b805490506138299190615750565b90506000600c60008481526020019081526020016000205490506000600b838154811061387f577f4e487b7100000000000000000000000000000000000000000000000000000000600052603260045260246000fd5b9060005260206000200154905080600b83815481106138c7577f4e487b7100000000000000000000000000000000000000000000000000000000600052603260045260246000fd5b906000526020600020018190555081600c600083815260200190815260200160002081905550600c600085815260200190815260200160002060009055600b80548061393c577f4e487b7100000000000000000000000000000000000000000000000000000000600052603160045260246000fd5b6001900381819060005260206000200160009055905550505050565b600061396383611603565b905081600960008573ffffffffffffffffffffffffffffffffffffffff1673ffffffffffffffffffffffffffffffffffffffff16815260200190815260200160002060008381526020019081526020016000208190555080600a600084815260200190815260200160002081905550505050565b6139e18383613a45565b6139ee60008484846134c3565b613a2d576040517f08c379a0000000000000000000000000000000000000000000000000000000008152600401613a24906151ae565b60405180910390fd5b505050565b600080823b905060008111915050919050565b600073ffffffffffffffffffffffffffffffffffffffff168273ffffffffffffffffffffffffffffffffffffffff161415613ab5576040517f08c379a0000000000000000000000000000000000000000000000000000000008152600401613aac9061538e565b60405180910390fd5b613abe816124e4565b15613afe576040517f08c379a0000000000000000000000000000000000000000000000000000000008152600401613af5906151ee565b60405180910390fd5b613b0a60008383613100565b6001600660008473ffffffffffffffffffffffffffffffffffffffff1673ffffffffffffffffffffffffffffffffffffffff1681526020019081526020016000206000828254613b5a919061566f565b92505081905550816005600083815260200190815260200160002060006101000a81548173ffffffffffffffffffffffffffffffffffffffff021916908373ffffffffffffffffffffffffffffffffffffffff160217905550808273ffffffffffffffffffffffffffffffffffffffff16600073ffffffffffffffffffffffffffffffffffffffff167fddf252ad1be2c89b69c2b068fc378daa952ba7f163c4a11628f55a4df523b3ef60405160405180910390a45050565b828054613c1f90615848565b90600052602060002090601f016020900481019282613c415760008555613c88565b82601f10613c5a57805160ff1916838001178555613c88565b82800160010185558215613c88579182015b82811115613c87578251825591602001919060010190613c6c565b5b509050613c959190613c99565b5090565b5b80821115613cb2576000816000905550600101613c9a565b5090565b6000613cc9613cc48461553a565b615509565b905082815260208101848484011115613ce157600080fd5b613cec848285615806565b509392505050565b6000613d07613d028461556a565b615509565b905082815260208101848484011115613d1f57600080fd5b613d2a848285615806565b509392505050565b600081359050613d41816159c1565b92915050565b600081359050613d56816159d8565b92915050565b600081359050613d6b816159ef565b92915050565b600081519050613d80816159ef565b92915050565b600082601f830112613d9757600080fd5b8135613da7848260208601613cb6565b91505092915050565b600082601f830112613dc157600080fd5b8135613dd1848260208601613cf4565b91505092915050565b600081359050613de981615a06565b92915050565b600081359050613dfe81615a1d565b92915050565b600060208284031215613e1657600080fd5b6000613e2484828501613d32565b91505092915050565b60008060408385031215613e4057600080fd5b6000613e4e85828601613d32565b9250506020613e5f85828601613d32565b9150509250929050565b600080600060608486031215613e7e57600080fd5b6000613e8c86828701613d32565b9350506020613e9d86828701613d32565b9250506040613eae86828701613def565b9150509250925092565b60008060008060808587031215613ece57600080fd5b6000613edc87828801613d32565b9450506020613eed87828801613d32565b9350506040613efe87828801613def565b925050606085013567ffffffffffffffff811115613f1b57600080fd5b613f2787828801613d86565b91505092959194509250565b60008060408385031215613f4657600080fd5b6000613f5485828601613d32565b9250506020613f6585828601613d47565b9150509250929050565b60008060408385031215613f8257600080fd5b6000613f9085828601613d32565b9250506020613fa185828601613def565b9150509250929050565b600060208284031215613fbd57600080fd5b6000613fcb84828501613d5c565b91505092915050565b600060208284031215613fe657600080fd5b6000613ff484828501613d71565b91505092915050565b60006020828403121561400f57600080fd5b600082013567ffffffffffffffff81111561402957600080fd5b61403584828501613db0565b91505092915050565b600080600080600060a0868803121561405657600080fd5b600061406488828901613dda565b955050602086013567ffffffffffffffff81111561408157600080fd5b61408d88828901613db0565b945050604086013567ffffffffffffffff8111156140aa57600080fd5b6140b688828901613db0565b935050606086013567ffffffffffffffff8111156140d357600080fd5b6140df88828901613db0565b925050608086013567ffffffffffffffff8111156140fc57600080fd5b61410888828901613db0565b9150509295509295909350565b60006020828403121561412757600080fd5b600061413584828501613def565b91505092915050565b600061414a838361416e565b60208301905092915050565b60006141628383614eff565b60208301905092915050565b61417781615784565b82525050565b61418681615784565b82525050565b6000614197826155cf565b6141a18185615615565b93506141ac8361559a565b8060005b838110156141dd5781516141c4888261413e565b97506141cf836155fb565b9250506001810190506141b0565b5085935050505092915050565b60006141f5826155da565b6141ff8185615626565b935061420a836155aa565b8060005b8381101561423b5781516142228882614156565b975061422d83615608565b92505060018101905061420e565b5085935050505092915050565b61425181615796565b82525050565b6000614262826155e5565b61426c8185615637565b935061427c818560208601615815565b614285816159b0565b840191505092915050565b600061429b826155f0565b6142a58185615653565b93506142b5818560208601615815565b6142be816159b0565b840191505092915050565b60006142d4826155f0565b6142de8185615664565b93506142ee818560208601615815565b80840191505092915050565b6000815461430781615848565b6143118186615664565b9450600182166000811461432c576001811461433d57614370565b60ff19831686528186019350614370565b614346856155ba565b60005b8381101561436857815481890152600182019150602081019050614349565b838801955050505b50505092915050565b6000614386601d83615653565b91507f5472616e73666572206661696c656420666f7220646576656c6f7065720000006000830152602082019050919050565b60006143c6600983615664565b91507f7b226e616d65223a2200000000000000000000000000000000000000000000006000830152600982019050919050565b6000614406600b83615664565b91507f222c22696d616765223a220000000000000000000000000000000000000000006000830152600b82019050919050565b6000614446602b83615653565b91507f455243373231456e756d657261626c653a206f776e657220696e646578206f7560008301527f74206f6620626f756e64730000000000000000000000000000000000000000006020830152604082019050919050565b60006144ac603283615653565b91507f4552433732313a207472616e7366657220746f206e6f6e20455243373231526560008301527f63656976657220696d706c656d656e74657200000000000000000000000000006020830152604082019050919050565b6000614512602683615653565b91507f4f776e61626c653a206e6577206f776e657220697320746865207a65726f206160008301527f64647265737300000000000000000000000000000000000000000000000000006020830152604082019050919050565b6000614578601c83615653565b91507f4552433732313a20746f6b656e20616c7265616479206d696e746564000000006000830152602082019050919050565b60006145b8602583615664565b91507f222c22637265617465645f6279223a2253574d53222c2264657363726970746960008301527f6f6e223a220000000000000000000000000000000000000000000000000000006020830152602582019050919050565b600061461e601c83615653565b91507f5472616e73666572206661696c656420666f722063726561746f722e000000006000830152602082019050919050565b600061465e602483615653565b91507f4552433732313a207472616e7366657220746f20746865207a65726f2061646460008301527f72657373000000000000000000000000000000000000000000000000000000006020830152604082019050919050565b60006146c4601983615653565b91507f4552433732313a20617070726f766520746f2063616c6c6572000000000000006000830152602082019050919050565b6000614704602283615653565b91507f4e6f7420656e6f75676820657468657220746f207075726368617365204e465460008301527f732e0000000000000000000000000000000000000000000000000000000000006020830152604082019050919050565b600061476a601583615653565b91507f4e6f7420656e6f756768204e465473206c6566742100000000000000000000006000830152602082019050919050565b60006147aa602583615653565b91507f43616e6e6f74206d696e7420737065636966696564206e756d626572206f662060008301527f4e4654732e0000000000000000000000000000000000000000000000000000006020830152604082019050919050565b6000614810602c83615653565b91507f4552433732313a206f70657261746f7220717565727920666f72206e6f6e657860008301527f697374656e7420746f6b656e00000000000000000000000000000000000000006020830152604082019050919050565b6000614876600d83615653565b91507f496e76616c696420746f6b656e000000000000000000000000000000000000006000830152602082019050919050565b60006148b6603883615653565b91507f4552433732313a20617070726f76652063616c6c6572206973206e6f74206f7760008301527f6e6572206e6f7220617070726f76656420666f7220616c6c00000000000000006020830152604082019050919050565b600061491c602a83615653565b91507f4552433732313a2062616c616e636520717565727920666f7220746865207a6560008301527f726f2061646472657373000000000000000000000000000000000000000000006020830152604082019050919050565b6000614982601d83615653565b91507f5472616e73666572206661696c656420666f722070726f7669646572200000006000830152602082019050919050565b60006149c2602983615653565b91507f4552433732313a206f776e657220717565727920666f72206e6f6e657869737460008301527f656e7420746f6b656e00000000000000000000000000000000000000000000006020830152604082019050919050565b6000614a28601083615664565b91507f222c2261747472696275746573223a5b000000000000000000000000000000006000830152601082019050919050565b6000614a68602083615653565b91507f4552433732313a206d696e7420746f20746865207a65726f20616464726573736000830152602082019050919050565b6000614aa8601983615653565b91507f4e6f206574686572206c65667420746f207769746864726177000000000000006000830152602082019050919050565b6000614ae8602c83615653565b91507f4552433732313a20617070726f76656420717565727920666f72206e6f6e657860008301527f697374656e7420746f6b656e00000000000000000000000000000000000000006020830152604082019050919050565b6000614b4e601b83615664565b91507f646174613a6170706c69636174696f6e2f6a736f6e3b757466382c00000000006000830152601b82019050919050565b6000614b8e602083615653565b91507f4f776e61626c653a2063616c6c6572206973206e6f7420746865206f776e65726000830152602082019050919050565b6000614bce602983615653565b91507f4552433732313a207472616e73666572206f6620746f6b656e2074686174206960008301527f73206e6f74206f776e00000000000000000000000000000000000000000000006020830152604082019050919050565b6000614c34602f83615653565b91507f4552433732314d657461646174613a2055524920717565727920666f72206e6f60008301527f6e6578697374656e7420746f6b656e00000000000000000000000000000000006020830152604082019050919050565b6000614c9a600283615664565b91507f5d7d0000000000000000000000000000000000000000000000000000000000006000830152600282019050919050565b6000614cda602183615653565b91507f4552433732313a20617070726f76616c20746f2063757272656e74206f776e6560008301527f72000000000000000000000000000000000000000000000000000000000000006020830152604082019050919050565b6000614d40600083615648565b9150600082019050919050565b6000614d5a601083615653565b91507f5472616e73666572206661696c65642e000000000000000000000000000000006000830152602082019050919050565b6000614d9a603183615653565b91507f4552433732313a207472616e736665722063616c6c6572206973206e6f74206f60008301527f776e6572206e6f7220617070726f7665640000000000000000000000000000006020830152604082019050919050565b6000614e00600f83615664565b91507f222c22696d6167655f75726c223a2200000000000000000000000000000000006000830152600f82019050919050565b6000614e40602483615653565b91507f41646d696e436f6e74726f6c3a204d757374206265206f776e6572206f72206160008301527f646d696e000000000000000000000000000000000000000000000000000000006020830152604082019050919050565b6000614ea6602c83615653565b91507f455243373231456e756d657261626c653a20676c6f62616c20696e646578206f60008301527f7574206f6620626f756e647300000000000000000000000000000000000000006020830152604082019050919050565b614f08816157fc565b82525050565b614f17816157fc565b82525050565b6000614f2982856142c9565b9150614f3582846142c9565b91508190509392505050565b6000614f4c82614b41565b9150614f57826143b9565b9150614f6382886142fa565b9150614f6e826145ab565b9150614f7a82876142fa565b9150614f85826143f9565b9150614f9182866142fa565b9150614f9c82614df3565b9150614fa882856142fa565b9150614fb382614a1b565b9150614fbf82846142fa565b9150614fca82614c8d565b91508190509695505050505050565b6000614fe482614d33565b9150819050919050565b6000602082019050615003600083018461417d565b92915050565b600060808201905061501e600083018761417d565b61502b602083018661417d565b6150386040830185614f0e565b818103606083015261504a8184614257565b905095945050505050565b600060608201905061506a600083018661417d565b6150776020830185614f0e565b6150846040830184614f0e565b949350505050565b600060208201905081810360008301526150a6818461418c565b905092915050565b600060208201905081810360008301526150c881846141ea565b905092915050565b60006020820190506150e56000830184614248565b92915050565b600060208201905081810360008301526151058184614290565b905092915050565b600060808201905081810360008301526151278187614290565b9050818103602083015261513b8186614290565b9050818103604083015261514f8185614290565b905081810360608301526151638184614290565b905095945050505050565b6000602082019050818103600083015261518781614379565b9050919050565b600060208201905081810360008301526151a781614439565b9050919050565b600060208201905081810360008301526151c78161449f565b9050919050565b600060208201905081810360008301526151e781614505565b9050919050565b600060208201905081810360008301526152078161456b565b9050919050565b6000602082019050818103600083015261522781614611565b9050919050565b6000602082019050818103600083015261524781614651565b9050919050565b60006020820190508181036000830152615267816146b7565b9050919050565b60006020820190508181036000830152615287816146f7565b9050919050565b600060208201905081810360008301526152a78161475d565b9050919050565b600060208201905081810360008301526152c78161479d565b9050919050565b600060208201905081810360008301526152e781614803565b9050919050565b6000602082019050818103600083015261530781614869565b9050919050565b60006020820190508181036000830152615327816148a9565b9050919050565b600060208201905081810360008301526153478161490f565b9050919050565b6000602082019050818103600083015261536781614975565b9050919050565b60006020820190508181036000830152615387816149b5565b9050919050565b600060208201905081810360008301526153a781614a5b565b9050919050565b600060208201905081810360008301526153c781614a9b565b9050919050565b600060208201905081810360008301526153e781614adb565b9050919050565b6000602082019050818103600083015261540781614b81565b9050919050565b6000602082019050818103600083015261542781614bc1565b9050919050565b6000602082019050818103600083015261544781614c27565b9050919050565b6000602082019050818103600083015261546781614ccd565b9050919050565b6000602082019050818103600083015261548781614d4d565b9050919050565b600060208201905081810360008301526154a781614d8d565b9050919050565b600060208201905081810360008301526154c781614e33565b9050919050565b600060208201905081810360008301526154e781614e99565b9050919050565b60006020820190506155036000830184614f0e565b92915050565b6000604051905081810181811067ffffffffffffffff821117156155305761552f615981565b5b8060405250919050565b600067ffffffffffffffff82111561555557615554615981565b5b601f19601f8301169050602081019050919050565b600067ffffffffffffffff82111561558557615584615981565b5b601f19601f8301169050602081019050919050565b6000819050602082019050919050565b6000819050602082019050919050565b60008190508160005260206000209050919050565b600081519050919050565b600081519050919050565b600081519050919050565b600081519050919050565b6000602082019050919050565b6000602082019050919050565b600082825260208201905092915050565b600082825260208201905092915050565b600082825260208201905092915050565b600081905092915050565b600082825260208201905092915050565b600081905092915050565b600061567a826157fc565b9150615685836157fc565b9250827fffffffffffffffffffffffffffffffffffffffffffffffffffffffffffffffff038211156156ba576156b96158f4565b5b828201905092915050565b60006156d0826157fc565b91506156db836157fc565b9250826156eb576156ea615923565b5b828204905092915050565b6000615701826157fc565b915061570c836157fc565b9250817fffffffffffffffffffffffffffffffffffffffffffffffffffffffffffffffff0483118215151615615745576157446158f4565b5b828202905092915050565b600061575b826157fc565b9150615766836157fc565b925082821015615779576157786158f4565b5b828203905092915050565b600061578f826157dc565b9050919050565b60008115159050919050565b60007fffffffff0000000000000000000000000000000000000000000000000000000082169050919050565b600061ffff82169050919050565b600073ffffffffffffffffffffffffffffffffffffffff82169050919050565b6000819050919050565b82818337600083830152505050565b60005b83811015615833578082015181840152602081019050615818565b83811115615842576000848401525b50505050565b6000600282049050600182168061586057607f821691505b6020821081141561587457615873615952565b5b50919050565b6000615885826157fc565b91507fffffffffffffffffffffffffffffffffffffffffffffffffffffffffffffffff8214156158b8576158b76158f4565b5b600182019050919050565b60006158ce826157fc565b91506158d9836157fc565b9250826158e9576158e8615923565b5b828206905092915050565b7f4e487b7100000000000000000000000000000000000000000000000000000000600052601160045260246000fd5b7f4e487b7100000000000000000000000000000000000000000000000000000000600052601260045260246000fd5b7f4e487b7100000000000000000000000000000000000000000000000000000000600052602260045260246000fd5b7f4e487b7100000000000000000000000000000000000000000000000000000000600052604160045260246000fd5b6000601f19601f8301169050919050565b6159ca81615784565b81146159d557600080fd5b50565b6159e181615796565b81146159ec57600080fd5b50565b6159f8816157a2565b8114615a0357600080fd5b50565b615a0f816157ce565b8114615a1a57600080fd5b50565b615a26816157fc565b8114615a3157600080fd5b5056fea26469706673582212206e1787bd1459da438a54920ae8d78f4cb99ebb69b46471d1d970c10d6d2f04d964736f6c63430008000033",
  "linkReferences": {},
  "deployedLinkReferences": {}
}